:020000040800F2
:1000000000000220F9060008490700084907000817
:1000100049070008490700084907000800000000D8
:100020000000000000000000000000004907000878
:1000300049070008000000004907000849070008B8
:100040004907000849070008490700084907000850
:100050004907000849070008490700084907000840
:100060004907000849070008490700084907000830
:100070004907000849070008490700084907000820
:100080004907000849070008490700080000000068
:100090000000000000000000000000004907000808
:1000A00049070008490700084907000849070008F0
:1000B00049070008490700084907000849070008E0
:1000C00049070008490700084907000849070008D0
:1000D0004907000849070008490700080000000018
:1000E0004907000849070008490700080000000008
:1000F00000000000000000000000000049070008A8
:1001000000000000490700084907000849070008E7
:1001100000000000000000000000000000000000DF
:10012000490700084907000849070008490700086F
:100130004907000800000000000000000000000067
:100140000000000000000000000000004907000857
:10015000490700084907000849070008490700083F
:1001600049070008490700080000000000000000DF
:10017000000000000000000000000000000000007F
:100180000000000049070008000000000000000017
:080190004907000849070008B7
:1001980010B5054C237833B9044B13B10448AFF3B9
:1001A80000800123237010BD08000020000000001B
:1001B8009407000808B5034B1BB103490348AFF384
:1001C800008008BD000000000C0000209407000813
:1001D800034AD2F8883043F47003C2F88830704775
:1001E80000ED00E008B500F05FF800F015F800F049
:1001F80001F901E000F0CEF800F076F900F03EF9E0
:1002080000F000FA034B1B78002BF3D100F0DAF86A
:10021800F2E700BF28000020214A136B43F00303D4
:100228001363A2F56052536923F4F07353611D4BB5
:10023800596921F040015961116821F47C4141F468
:10024800A8411160196821F4405141F480511960A6
:10025800116821F4403141F480311160196821F4AA
:10026800401121F470611960D96821F4401121F41A
:10027800706141F4801141F4A061D960516821F4A2
:10028800F0715160596821F040015960D16821F43A
:100298007F31D160DA6822F44052DA60704700BFDB
:1002A8000038024000040240384A136823F0F8037B
:1002B80043F08003136000239360344B9B6813F072
:1002C8000C0FFAD1314A136823F0807313602F4B57
:1002D8001B6813F0007FFAD12C4A136823F410230B
:1002E80013602A4B1B6813F4003FFAD1274B1A6896
:1002F80022F480221A601A6842F480321A60234B72
:100308001B6813F4003FFAD0214A136823F007034F
:1003180043F0050313601D4B00225A605A6842F4EB
:1003280080025A605A6822F03F0242F004025A6082
:100338005A686FF38E1242F4C8525A605A6822F40F
:1003480040325A609A6822F47C4222F0F00242F469
:1003580080529A601A6842F080721A600B4B1B68D0
:1003680013F0007FFAD0094A936823F0030343F09F
:1003780002039360054B9B6803F00C03082BF9D12B
:10038800024A136843F400231360704700380240A0
:10039800003C0240094B5A6942F020025A615A69EE
:1003A80022F040025A6106494A6942F040024A6115
:1003B8005A6922F080025A61704700BF000002406B
:1003C80000040240094B5A6922F020025A615A6916
:1003D80022F040025A615A6922F080025A61044AA6
:1003E800536923F040035361704700BF0000024087
:1003F80000040240134B1A6B42F001021A635A6C54
:1004080042F480725A64104A136843F4437343F009
:10041800030313600D4B00225A609A60DA601A6178
:10042800DA621A635A631A6922F4E04222F03F0240
:1004380042F4C04242F036021A619A6842F0010260
:100448009A607047003802400000024000200140D6
:10045800094B5A6B22F01F02104358639A6842F006
:1004680080429A60044B1B6813F0020FFAD0024BCB
:10047800D86C80B2704700BF0020014008B500204A
:10048800FFF7E6FF064B18800120FFF7E1FF054B59
:1004980018800420FFF7DCFF034B188008BD00BF5D
:1004A8003A0000203800002036000020034B1B696A
:1004B80013F4806F0CBF0120002070470004024035
:1004C800034B1B6913F0100F0CBF0120002070476D
:1004D80000040240034B1B6913F0200F0CBF0120DE
:1004E800002070470004024008B5FFF7C7FFFFF778
:1004F800DDFF30B1344B1B786BB10123324A1370E6
:1005080008BDFFF7DDFF0028F4D1FFF7E3FF03463E
:100518000028F3D0EEE7FFF7C9FF90B12B4B00227C
:100528001A702A4B1A78DAB9294B1B889BB22949C9
:10053800097839BBF2B9284A13800123254A137078
:10054800DCE7FFF7BDFF18B1204B01221A70E8E77E
:10055800FFF7C0FF0028E4D01C4B02221A70E0E726
:10056800012A03D01D4B1B889BB2E0E71C4B1B885C
:100578009BB2DCE7012A02D01A4A1380DDE71A4A47
:100588001380DAE762B9194A1380134A12881344B0
:100598005B10174A13800F4B00221A700123ADE736
:1005A800012A08D0134A13800E4A128813445B109C
:1005B800114A1380EFE7114A13800B4A128813443B
:1005C8005B100F4A1380E6E7240000202500002076
:1005D8003A000020260000200400002036000020F9
:1005E8003800002000000020020000203400002015
:1005F8002E000020300000202A00002032000020B9
:100608002C0000202B4B1A882B4B1B889A422DD983
:100618002A4B1A8892B22A4B1B8893422CBF00237C
:100628000123284A1370284B1A88284B1B889A42A2
:1006380028D9274B1A8892B2264B1B8893422CBF85
:1006480000230123244A1370244B1A88244B1B8847
:100658009A4223D9234B1A8892B2234B1B88934280
:100668002CBF00230123214A13707047134B1A88AB
:1006780092B2134B1B88934294BF00230123114A63
:100688001370D0E7124B1A8892B2124B1B88934210
:1006980094BF00230123104A1370D5E7114B1A8821
:1006A80092B2114B1B88934294BF002301230F4A37
:1006B8001370704734000020040000203A00002026
:1006C8002E00002029000020320000200200002017
:1006D800380000202C0000202800002030000020D6
:1006E80000000020360000202A00002027000020FB
:1006F800DFF834D00D480E490E4A002302E0D458E2
:10070800C4500433C4188C42F9D30B4A0B4C002351
:1007180001E013600432A242FBD3FFF759FD00F059
:1007280011F8FFF75FFD704700000220000000206D
:1007380008000020B4070008080000203C00002042
:10074800FEE7000070B50D4D0D4C641BA41000268B
:10075800A64209D10B4D0C4C00F018F8641BA410EC
:100768000026A64205D170BD55F8043B98470136CE
:10077800EEE755F8043B98470136F2E7AC07000866
:10078800AC070008AC070008B0070008F8B500BFC0
:10079800F8BC08BC9E467047F8B500BFF8BC08BC5A
:0407A8009E467047B2
:0407AC00BD01000883
:0407B00099010008A3
:0807B400FF0FFF0FFF0F000013
:04000005080006F9F0
:00000001FF
