:020000040800F2
:10000000000002208D040008DD040008DD04000863
:10001000DD040008DD040008DD0400080000000025
:10002000000000000000000000000000DD040008E7
:10003000DD04000800000000DD040008DD04000805
:10004000DD040008DD040008DD040008DD0400080C
:10005000DD040008DD040008DD040008DD040008FC
:10006000DD040008DD040008DD040008DD040008EC
:10007000DD040008DD040008DD040008DD040008DC
:10008000DD040008DD040008DD04000800000000B5
:10009000000000000000000000000000DD04000877
:1000A000DD040008DD040008DD040008DD040008AC
:1000B000DD040008DD040008DD040008DD0400089C
:1000C000DD040008DD040008DD040008DD0400088C
:1000D000DD040008DD040008DD0400080000000065
:1000E000DD040008DD040008DD0400080000000055
:1000F000000000000000000000000000DD04000817
:1001000000000000DD040008DD040008DD04000834
:1001100000000000000000000000000000000000DF
:10012000DD040008DD040008DD040008DD0400082B
:10013000DD040008000000000000000000000000D6
:10014000000000000000000000000000DD040008C6
:10015000DD040008DD040008DD040008DD040008FB
:10016000DD040008DD0400080000000000000000BD
:10017000000000000000000000000000000000007F
:1001800000000000DD040008000000000000000086
:08019000DD040008DD04000895
:1001980010B5054C237833B9044B13B10448AFF3B9
:1001A80000800123237010BD000000200000000023
:1001B8002805000808B5034B1BB103490348AFF3F2
:1001C800008008BD00000000040000202805000889
:1001D800034AD2F8883043F47003C2F88830704775
:1001E80000ED00E008B500F061F800F009F800F053
:1001F800D3F8642000F0FEF8642000F01DF9F8E759
:10020800264A136B43F007031363254B1A6822F041
:10021800030242F001021A601A6822F00C0242F04E
:1002280004021A601A6822F4407242F480721A605A
:100238001C4A136823F0030343F0010313601A4BAD
:100248001A6822F4405242F400521A601A6822F4E2
:10025800404242F400421A601A6A22F0706242F088
:1002680000721A621A6A22F0704242F000521A6250
:100278009A6842F470429A60DA6822F47042DA604E
:100288001A6842F400221A609A6842F440229A607E
:100298005A6A22F0F0025A62704700BF00380240E2
:1002A800000002400004024000080240384A136877
:1002B80023F0F80343F08003136000239360344B6A
:1002C8009B6813F00C0FFAD1314A136823F080733E
:1002D80013602F4B1B6813F0007FFAD12C4A136868
:1002E80023F4102313602A4B1B6813F4003FFAD140
:1002F800274B1A6822F480221A601A6842F4803266
:100308001A60234B1B6813F4003FFAD0214A136884
:1003180023F0070343F0050313601D4B00225A60C6
:100328005A6842F480025A605A6822F03F0242F04A
:1003380004025A605A686FF38E1242F4C8525A6027
:100348005A6822F440325A609A6822F47C4222F0B9
:10035800F00242F480529A601A6842F080721A6081
:100368000B4B1B6813F0007FFAD0094A936823F0FF
:10037800030343F002039360054B9B6803F00C03EF
:10038800082BF9D1024A136843F40023136070471D
:1003980000380240003C0240144A136C43F0020348
:1003A8001364134B63229A626422DA629A6922F414
:1003B800E04222F0700242F4C04242F060029A61C8
:1003C8009A6942F4006242F008029A611A6A42F09D
:1003D80011021A6200225A639A631A6842F0800274
:1003E8001A601A6842F001021A6070470038024029
:1003F8000004004000280EDB0D4B5A6942F0010250
:100408005A615A6922F002025A61642800DD6420A8
:10041800084B58637047064B5A6922F001025A612B
:100428005A6942F002025A61404200B2EDE700BF49
:100438000000024000040040002810DB0F4A536906
:1004480043F01003536102F58062536923F00103FE
:100458005361642800DD6420094B98637047074A9C
:10046800536923F01003536102F58062536943F026
:1004780001035361404200B2EBE700BF00000240B5
:1004880000040040DFF834D00D480E490E4A00231E
:1004980002E0D458C4500433C4188C42F9D30B4A30
:1004A8000B4C002301E013600432A242FBD3FFF798
:1004B8008FFE00F011F8FFF795FE7047000002204C
:1004C800000000200000002048050008000000206F
:1004D8001C000020FEE7000070B50D4D0D4C641B9C
:1004E800A4100026A64209D10B4D0C4C00F018F8B8
:1004F800641BA4100026A64205D170BD55F8043B24
:1005080098470136EEE755F8043B98470136F2E77D
:10051800400500084005000840050008440500089B
:10052800F8B500BFF8BC08BC9E467047F8B500BFD8
:08053800F8BC08BC9E467047A8
:04054000BD010008F1
:040544009901000811
:040000050800048D5E
:00000001FF
