:020000040800F2
:1000000000000220150300086503000865030008CE
:100010006503000865030008650300080000000090
:100020000000000000000000000000006503000860
:100030006503000800000000650300086503000870
:1000400065030008650300086503000865030008F0
:1000500065030008650300086503000865030008E0
:1000600065030008650300086503000865030008D0
:1000700065030008650300086503000865030008C0
:100080006503000865030008650300080000000020
:1000900000000000000000000000000065030008F0
:1000A0006503000865030008650300086503000890
:1000B0006503000865030008650300086503000880
:1000C0006503000865030008650300086503000870
:1000D00065030008650300086503000800000000D0
:1000E00065030008650300086503000800000000C0
:1000F0000000000000000000000000006503000890
:10010000000000006503000865030008650300089F
:1001100000000000000000000000000000000000DF
:10012000650300086503000865030008650300080F
:10013000650300080000000000000000000000004F
:10014000000000000000000000000000650300083F
:1001500065030008650300086503000865030008DF
:1001600065030008650300080000000000000000AF
:10017000000000000000000000000000000000007F
:1001800000000000650300080000000000000000FF
:08019000650300086503000887
:1001980010B5054C237833B9044B13B10448AFF3B9
:1001A80000800123237010BD000000200000000023
:1001B800B003000808B5034B1BB103490348AFF36C
:1001C800008008BD0000000004000020B003000803
:1001D800034AD2F8883043F47003C2F88830704775
:1001E80000ED00E0104B1B6913F0040F1AD182B028
:1001F8000023019302E0019B01330193019A40F629
:10020800AB539A42F7DD084B1B6913F0040F02D079
:10021800002002B07047044B1B6913F0040FFAD09A
:100228000120F6E700207047000C0240064B1B68CF
:1002380043B1054B1A68013A1A601B6813B9034B9E
:1002480000221A70704700BF1C0000202000002008
:1002580008B500F023F806E00D4A936943F020033F
:100268009361FFF7E3FFFFF7BDFF30B1094B0122B0
:100278001A70094B4EF660221A60064B1B78002B49
:10028800EAD1034A936943F400139361E9E700BF95
:1002980000000240200000201C000020194A136BB7
:1002A80043F00D031363184B1A6842F480621A6016
:1002B8005A6822F020025A609A6842F480629A6072
:1002C8009A6942F400129A6103F500631A6822F0F1
:1002D80040621A60DA6822F04062DA60DA6842F056
:1002E8008062DA6003F580631A6822F030021A60CF
:1002F800DA6822F03002DA60DA6842F01002DA6076
:10030800704700BF0038024000000240DFF834D0D8
:100318000D480E490E4A002302E0D458C450043355
:10032800C4188C42F9D30B4A0B4C002301E013602C
:100338000432A242FBD3FFF74BFF00F011F8FFF79E
:1003480087FF704700000220000000200000002006
:10035800D00300080000002024000020FEE7000071
:1003680070B50D4D0D4C641BA4100026A64209D192
:100378000B4D0C4C00F018F8641BA4100026A64284
:1003880005D170BD55F8043B98470136EEE755F89E
:10039800043B98470136F2E7C8030008C803000881
:1003A800C8030008CC030008F8B500BFF8BC08BCB7
:1003B8009E467047F8B500BFF8BC08BC9E4670471B
:0403C800BD0100086B
:0403CC00990100088B
:0400000508000315D7
:00000001FF
