:020000040800F2
:10000000000002208D050008DD050008DD05000860
:10001000DD050008DD050008DD0500080000000022
:10002000000000000000000000000000DD050008E6
:10003000DD05000800000000DD050008DD05000802
:10004000DD050008DD050008DD050008DD05000808
:10005000DD050008DD050008DD050008DD050008F8
:10006000DD050008DD050008DD050008DD050008E8
:10007000DD050008DD050008DD050008DD050008D8
:10008000DD050008DD050008DD05000800000000B2
:10009000000000000000000000000000DD05000876
:1000A000DD050008DD050008DD050008DD050008A8
:1000B000DD050008DD050008DD050008DD05000898
:1000C000DD050008DD050008DD050008DD05000888
:1000D000DD050008DD050008DD0500080000000062
:1000E000DD050008DD050008DD0500080000000052
:1000F000000000000000000000000000DD05000816
:1001000000000000DD050008DD050008DD05000831
:1001100000000000000000000000000000000000DF
:10012000DD050008DD050008DD050008DD05000827
:10013000DD050008000000000000000000000000D5
:10014000000000000000000000000000DD050008C5
:10015000DD050008DD050008DD050008DD050008F7
:10016000DD050008DD0500080000000000000000BB
:10017000000000000000000000000000000000007F
:1001800000000000DD050008000000000000000085
:08019000DD050008DD05000893
:1001980010B5054C237833B9044B13B10448AFF3B9
:1001A80000800123237010BD000000200000000023
:1001B8002806000808B5034B1BB103490348AFF3F1
:1001C800008008BD00000000040000202806000888
:1001D800034AD2F8883043F47003C2F88830704775
:1001E80000ED00E010B500F031F800240CE000F05C
:1001F800E9F820B100F07CF901E0012814D00023CF
:10020800104A1370104A137000F004F900B1013459
:10021800204600F0B3F90028EFD100F0ABF8002831
:10022800E5D000F01FF9EAE700F0A4F810B100F0FB
:100238005FF9E4E700F0C6F80028E0D000F012F912
:10024800DDE700BF1E0000201D000020464A136B9A
:1002580043F00B031363A2F56052136843F4803331
:100268001360536823F480735360936843F48033B6
:100278009360936943F0807393613C4B196841F430
:1002880080111960596821F480615960996841F4B6
:1002980080119960996941F080619961196841F00C
:1002A80040011960596821F008015960996841F0C6
:1002B80040019960996941F400219961196841F4F4
:1002C80080711960596821F010015960996841F4EA
:1002D80080719960996941F480119961196841F4B4
:1002E80080611960596821F020015960996841F4CA
:1002F80080619960996941F400119961136843F428
:1003080080131360536823F480635360936843F445
:1003180080139360936943F080639361144B196869
:1003280021F030011960D96821F03001D960D9680D
:1003380041F01001D960136823F003031360D368F8
:1003480023F00303D360D36843F00103D360136839
:1003580023F00C031360D36823F00C03D360D36835
:1003680043F00403D36070470038024000040240A1
:10037800000C0240104B1B6913F0040F0DD0002035
:100388007047013340F6AB529342FADD0A4B1B69C2
:1003980013F0040F03D0002070470023F2E7064B48
:1003A8001B6913F0040FFAD0044A13680133136071
:1003B8000120034B18707047000C024028000020F1
:1003C8001E000020104B1B6913F0010F0DD00020F8
:1003D8007047013340F6AB529342FADD0A4B1B6972
:1003E80013F0010F03D0002070470023F2E7064BFB
:1003F8001B6913F0010FFAD0044A13680133136024
:100408000120034B187070470000024024000020B0
:100418001D000020104B1B6913F0020F0DD00020A7
:100428007047013340F6AB529342FADD0A4B1B6921
:1004380013F0020F03D0002070470023F2E7064BA9
:100448001B6913F0020FFAD0044A136801331360D2
:100458000120034B18707047000002402000002064
:100468001C000020204B1B6913F4807F05D11E4A15
:10047800936943F48073936170471C4B1B6913F4B1
:10048800806F05D1194A936943F48063936170477B
:10049800164B1B6913F0100F05D1144A936943F0EA
:1004A800100393617047114B1B6913F0200F05D19E
:1004B8000E4A936943F02003936170470B4B1B6905
:1004C80013F0080F05D1094A936943F008039361B3
:1004D8007047054B1B6913F4806F04D1024A936976
:1004E80043F48063936170470000024000040240B7
:1004F800204B1B6913F4807F05D01E4A936943F093
:100508008073936170471C4B1B6913F4806F05D08F
:10051800194A936943F0806393617047164B1B69CE
:1005280013F0100F05D0144A936943F480139361B4
:100538007047114B1B6913F0200F05D00E4A9369C1
:1005480043F40013936170470B4B1B6913F0080FBA
:1005580005D0094A936943F4002393617047054B1A
:100568001B6913F4806F04D0024A936943F08063D7
:1005780093617047000002400004024000F001004F
:1005880070470000DFF834D00D480E490E4A0023AA
:1005980002E0D458C4500433C4188C42F9D30B4A2F
:1005A8000B4C002301E013600432A242FBD3FFF797
:1005B8000FFE00F011F8FFF715FE7047000002204B
:1005C800000000200000002048060008000000206D
:1005D8002C000020FEE7000070B50D4D0D4C641B8B
:1005E800A4100026A64209D10B4D0C4C00F018F8B7
:1005F800641BA4100026A64205D170BD55F8043B23
:1006080098470136EEE755F8043B98470136F2E77C
:100618004006000840060008400600084406000896
:10062800F8B500BFF8BC08BC9E467047F8B500BFD7
:08063800F8BC08BC9E467047A7
:04064000BD010008F0
:040644009901000810
:040000050800058D5D
:00000001FF
