:020000040800F2
:1000000000000220A9080008F9080008F908000803
:10001000F9080008F9080008F908000800000000C5
:10002000000000000000000000000000F9080008C7
:10003000F908000800000000F9080008F1040008B1
:10004000F9080008F9080008F9080008F90800088C
:10005000F9080008F9080008F9080008F90800087C
:10006000F9080008F9080008F9080008F90800086C
:10007000F9080008F9080008F9080008F90800085C
:10008000F9080008F9080008F90800080000000055
:10009000000000000000000000000000F908000857
:1000A000F9080008F9080008F9080008F90800082C
:1000B00009060008F9080008F9080008F90800080E
:1000C000F9080008F9080008F9080008F90800080C
:1000D000F9080008F9080008F90800080000000005
:1000E00085050008F9080008F9080008000000006C
:1000F000000000000000000000000000F9080008F7
:1001000000000000F9080008F9080008F9080008D4
:1001100000000000000000000000000000000000DF
:10012000F9080008F9080008F9080008F9080008AB
:10013000F9080008000000000000000000000000B6
:10014000000000000000000000000000F9080008A6
:10015000F9080008F9080008F9080008F90800087B
:10016000F9080008F908000800000000000000007D
:10017000000000000000000000000000000000007F
:1001800000000000F9080008000000000000000066
:08019000F9080008F908000855
:1001980010B5054C237833B9044B13B10448AFF3B9
:1001A80000800123237010BD04000020000000001F
:1001B8004409000808B5034B1BB103490348AFF3D2
:1001C800008008BD00000000080000204409000865
:1001D800034AD2F8883043F47003C2F88830704775
:1001E80000ED00E0224B9B6803F00C03042B11D0B8
:1001F800082B13D0002B37D11E4B1F4A1A601C4BFB
:100208009B68C3F303131D4AD15C1A4A1368CB4099
:1002180013607047174B1A4A1A60F0E7144B596875
:100228005A6802F03F0211F4800F13D0144BB3FB4D
:10023800F2F30F4A5268C2F3881202FB03F30C4A26
:100248005268C2F3014201325200B3FBF2F3094A89
:100258001360D4E7084BB3FBF2F3054A5268C2F3C4
:10026800881202FB03F3EAE7024B034A1A60C6E767
:1002780000380240000000200024F4005C09000857
:1002880040787D0108B500F077F800F009F800F033
:1002980005F900F04BF900F0C7F830BFFDE70000A2
:1002A800324B1A6B42F001021A631A6B42F00202D7
:1002B8001A631A6B42F004021A632D4A136823F476
:1002C800437323F003031360D36823F4437323F0C9
:1002D8000303D360136823F47C431360254B196828
:1002E80021F440511960116841F4A841116019685E
:1002F80041F4805119604FF4600191614FF480021C
:100308009A611A6822F4401222F0C0021A601A6830
:1003180042F4001242F080021A601A6A22F4704213
:1003280042F480521A625A6A22F4706242F480726D
:100338005A6203F580631A6822F040621A60DA682C
:1003480022F0406242F08062DA601A6822F03002DD
:100358001A601A6842F010021A60DA6822F0300255
:10036800DA604FF480229A61704700BF003802407B
:10037800000002400004024008B5284A136843F40C
:1003880080331360254B1B6813F4003FFAD0234BCE
:100398001A6C42F080521A6421490A6822F44042D9
:1003A80042F400420A6001F5E6310A6822F00702C9
:1003B80042F002020A60596821F0746121F45F3149
:1003C80021F47F7121F00301164A0A435A601A6822
:1003D80042F080721A60114B1B6813F0007FFAD04C
:1003E8000E4B9A6822F0F0029A609A6822F4E05262
:1003F80042F480529A609A6822F460429A609A683D
:1004080022F0030242F002029A60044B9B6803F058
:100418000C03082BF9D1FFF7E5FE08BD00380240B0
:1004280000700040041540041A4A136C43F001039D
:1004380013644FF0804353229A6240F2E732DA6243
:1004480000229A63DA639A6922F4F04242F4D042B5
:100458009A61DA6922F0780242F06802DA611A6A6F
:1004680042F488721A621A6842F080021A60012205
:100478005A61DA6842F00102DA60074A202182F8FC
:100488001C134FF0805111601A6842F001021A6083
:10049800704700BF0038024000E100E00C4B1A68CA
:1004A8000C4BA3FB02329209013A4FF0E0235A6148
:1004B80000229A611A611A6942F004021A611A69E3
:1004C80042F002021A611A6942F001021A61704789
:1004D80000000020D34D6210024A536983F00403E0
:1004E800536170470008024008B50D4A136801338C
:1004F80013600C4A1278D2B2012A08D04FF4FA726B
:10050800934206D2084A13680133136008BD642277
:10051800F6E7FFF7E1FF024B00221A60F2E700BF9F
:10052800200000203100002038000020104A536CC1
:1005380043F480435364A2F58032536923F0F003F7
:1005480043F0200353610B4B1A6842F400521A60BF
:10055800DA6842F40052DA609A6842F400529A600B
:10056800054B202283F828234FF480725A60704785
:1005780000380240003C014000E100E0174B5B6995
:1005880013F4005F0DD0164B1B6913F4005F09D1FB
:10059800144B1A68144B1A60104A536943F40053F9
:1005A800536170470F4B1B680F4A12689B1A312B17
:1005B800F2D90E4A1378B3FA83F35B0913701378F0
:1005C800DBB2012BE8D10023094A1370094A1370E2
:1005D800094A1360094A1360DEE700BF003C014086
:1005E80000080240380000203400002031000020BC
:1005F80025000020240000202C00002028000020D6
:1006080038B54FF080431B6913F0010F37D04FF016
:100618008042136923F001031361564B01221A70BB
:10062800554B1B782BB300F02FF9054600F020F945
:10063800044600F015F9002D30D0002832D04F4B79
:100648001B783BB94E4A13780133DBB213704B4B1E
:1006580001221A704A4B1B78DBB2032B10D90020F9
:1006680000F0A4F8002000F0C9F8434B00221A70EB
:1006780005E0002000F09AF8002000F0BFF838BD2F
:100688000023404A1360404A13604FF4C87000F0DA
:100698008DF84FF4C87000F0B1F8F0E710B9374B97
:1006A80000221A702B1950FA83F313F0FF032ED08F
:1006B800401B400090FBF3F0334B1A6802441A6069
:1006C8001B68962B02DD304B96221A602E4B1B6856
:1006D80013F1960F03DA2C4B6FF095021A60294B31
:1006E8001C68041B284A1268C82202FB04F4322240
:1006F80002FB0044186004F5C870C4F5C87440F2E1
:100708008A23984222DC002822DA002020E01D4BB0
:100718001B68002B0BDB1B4B1B68002B0FDD4FF4FA
:10072800967000F043F8194800F068F8A7E71748F2
:1007380000F03CF84FF4967000F060F89FE7002056
:1007480000F034F8002000F059F898E740F28A20C9
:1007580040F28A239C4203DC002C03DA002401E0E7
:1007680040F28A2400B200F021F820B200F046F8E6
:1007780085E700BF30000020310000202400002061
:10078800250000202C00002028000020D4FEFFFFB8
:10079800B0F57A7F03DA10F57A7F03DD704740F20F
:1007A800E73070470048704719FCFFFF08B5FFF7AE
:1007B800EFFF002807DD0E4B0E4A9A6180B24FF01A
:1007C8008043D86308BD002808DB094B4FF4C002FA
:1007D8009A614FF080430022DA63F3E7404280B227
:1007E800034B054A9A614FF08043D863EAE700BF9C
:1007F80000000240400020002000400008B5FFF73C
:10080800C7FF00280CDD154B80229A6103F5806331
:100818004FF480029A6180B24FF08043986308BD1C
:1008280000280CDB0D4B80229A6103F580634FF49E
:1008380080029A614FF0804300229A63EFE74042BA
:1008480080B2064B4FF400029A6103F580634022A0
:100858009A614FF080439863E1E700BF00000240CF
:10086800024B186900F00100704700BF0000024009
:10087800044B1B6913F0020F01D0012070470020C0
:10088800704700BF00000240044B1B6913F0100FB3
:1008980001D0012070470020704700BF00000240CF
:1008A800DFF834D00D480E490E4A002302E0D45830
:1008B800C4500433C4188C42F9D30B4A0B4C0023A0
:1008C80001E013600432A242FBD3FFF781FC00F081
:1008D80011F8FFF7D7FC7047000002200000002045
:1008E8000400002074090008040000203C000020D7
:1008F800FEE7000070B50D4D0D4C641BA4100026DA
:10090800A64209D10B4D0C4C00F018F8641BA4103A
:100918000026A64205D170BD55F8043B984701361C
:10092800EEE755F8043B98470136F2E76C090008F2
:100938006C0900086C09000870090008F8B500BFC8
:10094800F8BC08BC9E467047F8B500BFF8BC08BCA8
:040958009E46704700
:10095C000000000000000000010203040607080963
:04096C00BD010008C1
:0409700099010008E1
:040974000024F40067
:04000005080008A93E
:00000001FF
