:020000040800F2
:100000000000022091060008E1060008E106000851
:10001000E1060008E1060008E10600080000000013
:10002000000000000000000000000000E1060008E1
:10003000E106000800000000E10600088D0200084B
:10004000E1060008E1060008E1060008E1060008F4
:10005000E1060008E1060008E1060008E1060008E4
:10006000DD030008E1060008E1060008E1060008DB
:10007000E1060008E1060008E1060008E1060008C4
:10008000E1060008E1060008E106000800000000A3
:10009000000000000000000000000000E106000871
:1000A000E1060008E1060008E1060008E106000894
:1000B000E1060008E1060008E1060008E106000884
:1000C000E1060008E1060008E1060008E106000874
:1000D000E1060008E1060008E10600080000000053
:1000E000E1060008E1060008E10600080000000043
:1000F000000000000000000000000000E106000811
:1001000000000000E1060008E1060008E106000822
:1001100000000000000000000000000000000000DF
:10012000E1060008E1060008E1060008E106000813
:10013000E1060008000000000000000000000000D0
:10014000000000000000000000000000E1060008C0
:10015000E1060008E1060008E1060008E1060008E3
:10016000E1060008E10600080000000000000000B1
:10017000000000000000000000000000000000007F
:1001800000000000E1060008000000000000000080
:08019000E1060008E106000889
:1001980010B5054C237833B9044B13B10448AFF3B9
:1001A80000800123237010BD0C0000200000000017
:1001B8002C07000808B5034B1BB103490348AFF3EC
:1001C800008008BD00000000100000202C07000877
:1001D800034AD2F8883043F47003C2F88830704775
:1001E80000ED00E0224B9B6803F00C03042B11D0B8
:1001F800082B13D0002B37D11E4B1F4A1A601C4BFB
:100208009B68C3F303131D4AD15C1A4A1368CB4099
:1002180013607047174B1A4A1A60F0E7144B596875
:100228005A6802F03F0211F4800F13D0144BB3FB4D
:10023800F2F30F4A5268C2F3881202FB03F30C4A26
:100248005268C2F3014201325200B3FBF2F3094A89
:100258001360D4E7084BB3FBF2F3054A5268C2F3C4
:10026800881202FB03F3EAE7024B034A1A60C6E767
:1002780000380240000000200024F4004407000871
:1002880040787D01024A136801331360704700BF4C
:100298003C00002006282ED8DFE800F0040A1016DB
:1002A8001C222800144A936943F4807393617047B1
:1002B800124A936943F48063936170470F4A9369C4
:1002C80043F01003936170470C4A936943F020038D
:1002D80093617047094A936943F008039361704733
:1002E800054A936943F4806393617047024A9369AE
:1002F80043F020039361704700000240000402406D
:1003080006282ED8DFE800F0040A10161C22280060
:10031800144A936943F0807393617047124A936952
:1003280043F08063936170470F4A936943F48013E5
:10033800936170470C4A936943F4001393617047C3
:10034800094A936943F4002393617047054A936906
:1003580043F0806393617047024A936943F4001342
:10036800936170470000024000040240054A936907
:1003780043F0A463936102F58062936943F0876355
:10038800936170470000024008B50E4B18680028BA
:1003980014DA0C4A136801331360052B02DD134687
:1003A80000221A60074B1868FFF774FF064B0122FA
:1003B8001A70064B1A68064B1A6008BDFFF7A0FFB3
:1003C800E7E700BF080000202C0000203C000020C8
:1003D800280000200F4B5B6913F0040F15D00E4B5B
:1003E8001A680E4B1B68D31A632B09D90B4B1A607A
:1003F8000B4B1B6913F0040F08D00A4B01221A702B
:10040800044A536943F0040353617047064B0122C1
:100418001A70F5E7003C01403C000020380000203D
:10042800000C0240360000203500002008B50C4AB8
:10043800136B43F003031363A2F56052136843F48C
:10044800881343F48063136002F58062136843F4F1
:10045800801343F4A8631360FFF788FF08BD00BF4B
:1004680000380240094A136B43F008031363084B32
:100478001A6822F030021A60DA6822F03002DA6074
:10048800DA6842F02002DA60704700BF00380240A4
:10049800000C0240114A536C43F480435364A2F5A4
:1004A8008032936823F4706343F4407393600C4B79
:1004B8001A6842F004021A609A6842F004029A60CC
:1004C800DA6842F00402DA605A6942F004025A61BA
:1004D800044B4FF480721A60704700BF0038024026
:1004E800003C014000E100E008B5FFF77BFE4FF05B
:1004F800E0231A6922F001021A610B4A12680B49BB
:10050800A1FB02129209013A5A6100229A611A6902
:1005180042F004021A611A6942F002021A611A6969
:1005280042F001021A6108BD00000020D34D62109C
:1005380010B52A4B1C682A4B1B783BB1284B00226C
:100548001A70284B01221A70274B1C60274B1B7806
:1005580013B3264B00221A70224B1B78E3B1214BB0
:100568001A70214B1B68E31AB3F5FA6F12D3B3F56F
:100578007A6F12D21E4B1B7873B11E4A137801335F
:10058800DBB21370022B02D9134600221A701A4BE1
:100598001C6001E0FFF7F8FE10BD154B1B7873B91E
:1005A800134B01221A70154B18680028F4DBFFF76B
:1005B80071FE134B01221A700F4B1C60ECE70C4BB9
:1005C80000221A70FFF7D2FE0C4B18680028E3DBF4
:1005D800FFF760FE0A4B01221A70DDE73C0000209D
:1005E80036000020340000203000002035000020B4
:1005F800040000202D000020280000200800002012
:100608002C00002008B5124B1B78CBB1114B186891
:10061800002815DB104B1A68104B1978104B53F84B
:100628002110104B1B68D31A8B4209D30D4B1A604B
:100638000D4B1B782BB1FFF763FE0B4B00221A7092
:1006480008BDFFF727FE084B01221A70F8E700BF24
:1006580004000020080000203C0000202D0000209D
:1006680054070008280000202C00002008B5FFF7D8
:10067800DDFEFFF7F7FEFFF70DFFFFF735FFFFF78A
:1006880057FFFFF7BFFFFAE7DFF834D00D480E49F0
:100698000E4A002302E0D458C4500433C4188C42D4
:1006A800F9D30B4A0B4C002301E013600432A24239
:1006B800FBD3FFF78DFD00F011F8FFF7D7FF704768
:1006C80000000220000000200C000020680700083D
:1006D8000C00002040000020FEE7000070B50D4D22
:1006E8000D4C641BA4100026A64209D10B4D0C4CDE
:1006F80000F018F8641BA4100026A64205D170BDAE
:1007080055F8043B98470136EEE755F8043B9847FF
:100718000136F2E760070008600700086007000874
:1007280064070008F8B500BFF8BC08BC9E467047CF
:0C073800F8B500BFF8BC08BC9E46704736
:10074400000000000000000001020304060708097D
:0C075400830600004D010000E3000000DF
:04076000BD010008CF
:0407640099010008EF
:0C0768000024F40001000000FFFFFFFF70
:040000050800069158
:00000001FF
