:020000040800F2
:10000000000003200D0500085D0500085D050008DF
:100010005D0500085D0500085D05000800000000A2
:100020000000000000000000000000005D05000866
:100030005D050008000000005D0500085D05000882
:100040005D0500085D0500085D0500085D05000808
:100050005D0500085D0500085D0500085D050008F8
:100060005D0500085D0500085D0500085D050008E8
:100070005D0500085D0500085D0500085D050008D8
:100080005D0500085D0500085D0500085D050008C8
:100090005D0500085D0500085D0500085D050008B8
:1000A0005D0500085D0500085D0500085D050008A8
:1000B0005D0500085D0500085D0500085D05000898
:1000C0005D0500085D0500085D0500085D05000888
:1000D0005D0500085D0500085D0500085D05000878
:1000E0005D0500085D0500085D0500085D05000868
:1000F0005D0500085D0500085D0500085D05000858
:100100005D0500085D0500085D0500085D05000847
:100110005D0500085D0500085D0500085D05000837
:100120005D0500085D0500085D0500085D05000827
:100130005D0500085D0500085D0500085D05000817
:100140005D0500085D0500085D0500085D05000807
:100150005D0500085D0500085D0500085D050008F7
:100160005D0500085D0500085D0500085D050008E7
:100170005D0500085D0500085D0500080000000041
:100180005D0500085D0500085D0500085D050008C7
:100190005D0500085D0500085D0500085D050008B7
:0C01A0005D0500085D0500085D05000815
:1001AC0010B5054C237833B9044B13B10448AFF3A5
:1001BC0000800123237010BD00000020000000000F
:1001CC00A805000808B5034B1BB103490348AFF35E
:1001DC00008008BD0000000004000020A8050008F5
:1001EC00034AD2F8883043F47003C2F88830704761
:1001FC0000ED00E010B500F02BF800240AE001340B
:10020C000CE000F0B1F8012804D100F02FF901E066
:10021C0001280FD000F0C6F80128F0D0204600F0DD
:10022C006BF90028F4D100F081F80128E9D100F035
:10023C00D7F8EFE700F07AF8012806D000F094F830
:10024C000128E7D100F0CCF8E4E700F00FF9E1E782
:10025C00334A136B43F07A031363324B1A6842F040
:10026C0080621A605A6822F400525A609A6842F00E
:10027C0080629A609A6942F000529A612A4A116827
:10028C0041F480211160516821F400715160916832
:10029C0041F480219160916941F000719161116884
:1002AC0041F480011160516821F400615160916842
:1002BC0041F480019160916941F00061916119688C
:1002CC0041F080511960596821F480415960996856
:1002DC0041F080519960996941F0804199611168B0
:1002EC0041F080611160516821F4005151609168B6
:1002FC0041F080619160916941F0005191611A68FF
:10030C0042F080421A605A6822F400425A609A689D
:10031C0042F080429A609A6942F000429A617047BA
:10032C000038024000140240001002400D4B1B69C3
:10033C0013F0040F0DD000207047013340F6AB5280
:10034C009342FADD074B1B6913F0040F03D0002016
:10035C0070470023F2E7034B1B6913F0040FFAD02C
:10036C0001207047000C02400D4B1B6913F0040F69
:10037C000DD000207047013340F6AB529342FADDAA
:10038C00074B1B6913F0040F03D0002070470023A8
:10039C00F2E7034B1B6913F0040FFAD001207047EE
:1003AC00001802400D4B1B6913F0080F0DD00020F4
:1003BC007047013340F6AB529342FADD074B1B6991
:1003CC0013F0080F03D0002070470023F2E7034B13
:1003DC001B6913F0080FFAD0012070470018024077
:1003EC00204B1B6913F4005F05D11E4A936943F43B
:1003FC000053936170471C4B1B6913F4007F05D1AC
:10040C00194A936943F4007393617047164B1B6947
:10041C0013F4006F05D1144A936943F4006393619C
:10042C007047104B1B6913F4804F05D10D4A93692B
:10043C0043F48043936170470B4B1B6913F4005FCB
:10044C0005D1094A936943F4005393617047054BF6
:10045C001B6913F4004F04D1024A936943F400431F
:10046C00936170470014024000100240204B1B693E
:10047C0013F4004F05D01E4A936943F00043936177
:10048C0070471C4B1B6913F4005F05D0194A936924
:10049C0043F0005393617047154B1B6913F4804F65
:1004AC0005D0134A936943F0804393617047114B15
:1004BC001B6913F4006F05D00E4A936943F0006377
:1004CC00936170470B4B1B6913F4007F05D0094AED
:1004DC00936943F0007393617047054B1B6913F4E8
:1004EC00005F04D0024A936943F000539361704754
:1004FC00001402400010024000F0010070470000A0
:10050C00DFF834D00D480E490E4A002302E0D458CF
:10051C00C4500433C4188C42F9D30B4A0B4C00233F
:10052C0001E013600432A242FBD3FFF759FE00F046
:10053C0011F8FFF75FFE7047000003200000002059
:10054C0000000020C8050008000000201C0000204E
:10055C00FEE7000070B50D4D0D4C641BA410002679
:10056C00A64209D10B4D0C4C00F018F8641BA410DA
:10057C000026A64205D170BD55F8043B98470136BC
:10058C00EEE755F8043B98470136F2E7C005000842
:10059C00C0050008C0050008C4050008F8B500BF78
:1005AC00F8BC08BC9E467047F8B500BFF8BC08BC48
:0405BC009E467047A0
:0405C000D10100085D
:0405C400AD0100087D
:040000050800050DDD
:00000001FF
