:020000040800F2
:100000000000032085020008D5020008D502000880
:10001000D5020008D5020008D50200080000000043
:10002000000000000000000000000000D5020008F1
:10003000D502000800000000D502000811020008E7
:10004000D5020008D5020008D5020008D502000834
:10005000D5020008D5020008D5020008D502000824
:1000600021020008D5020008D5020008D5020008C8
:10007000D5020008D5020008D5020008D502000804
:10008000D5020008D5020008D5020008D5020008F4
:10009000D5020008D5020008D5020008D5020008E4
:1000A000D5020008D5020008D5020008D5020008D4
:1000B000D5020008D5020008D5020008D5020008C4
:1000C000D5020008D5020008D5020008D5020008B4
:1000D000D5020008D5020008D5020008D5020008A4
:1000E000D5020008D5020008D5020008D502000894
:1000F000D5020008D5020008D5020008D502000884
:10010000D5020008D5020008D5020008D502000873
:10011000D5020008D5020008D5020008D502000863
:10012000D5020008D5020008D5020008D502000853
:10013000D5020008D5020008D5020008D502000843
:10014000D5020008D5020008D5020008D502000833
:10015000D5020008D5020008D5020008D502000823
:10016000D5020008D5020008D5020008D502000813
:10017000D5020008D5020008D502000800000000E2
:10018000D5020008D5020008D5020008D5020008F3
:10019000D5020008D5020008D5020008D5020008E3
:0C01A000D5020008D5020008D5020008B6
:1001AC0010B5054C237833B9044B13B10448AFF3A5
:1001BC0000800123237010BD00000020000000000F
:1001CC002003000808B5034B1BB103490348AFF3E8
:1001DC00008008BD0000000004000020200300087F
:1001EC00034AD2F8883043F47003C2F88830704761
:1001FC0000ED00E0024A136801331360FAE700BF18
:10020C001C000020024A136801331360704700BFC2
:10021C002C000020114B5B6913F0040F19D0104B0C
:10022C001A68104B1B68D31A632B0DD90D4B1A602F
:10023C000D4B1B6913F0040F0CD00C4B01221A70E0
:10024C000B4A136801331360044A536943F00403E7
:10025C0053617047074B01221A70F5E7003C0140CF
:10026C002C00002028000020000C0240250000205B
:10027C002000002024000020DFF834D00D480E4967
:10028C000E4A002302E0D458C4500433C4188C42E4
:10029C00F9D30B4A0B4C002301E013600432A24249
:1002AC00FBD3FFF79DFF00F011F8FFF7A3FF70479A
:1002BC000000032000000020000000204003000884
:1002CC000000002030000020FEE7000070B50D4D4E
:1002DC000D4C641BA4100026A64209D10B4D0C4CEE
:1002EC0000F018F8641BA4100026A64205D170BDBE
:1002FC0055F8043B98470136EEE755F8043B984710
:10030C000136F2E738030008380300083803000808
:10031C003C030008F8B500BFF8BC08BC9E4670470B
:0C032C00F8B500BFF8BC08BC9E46704746
:04033800D1010008E7
:04033C00AD01000807
:040000050800028568
:00000001FF
