:020000040800F2
:1000000000000320190300086903000869030008C1
:100010006903000869030008690300080000000084
:10002000000000000000000000000000690300085C
:100030006903000800000000690300086903000864
:1000400069030008690300086903000869030008E0
:1000500069030008690300086903000869030008D0
:1000600069030008690300086903000869030008C0
:1000700069030008690300086903000869030008B0
:1000800069030008690300086903000869030008A0
:100090006903000869030008690300086903000890
:1000A0006903000869030008690300086903000880
:1000B0006903000869030008690300086903000870
:1000C0006903000869030008690300086903000860
:1000D0006903000869030008690300086903000850
:1000E0006903000869030008690300086903000840
:1000F0006903000869030008690300086903000830
:10010000690300086903000869030008690300081F
:10011000690300086903000869030008690300080F
:1001200069030008690300086903000869030008FF
:1001300069030008690300086903000869030008EF
:1001400069030008690300086903000869030008DF
:1001500069030008690300086903000869030008CF
:1001600069030008690300086903000869030008BF
:100170006903000869030008690300080000000023
:10018000690300086903000869030008690300089F
:10019000690300086903000869030008690300088F
:0C01A000690300086903000869030008F7
:1001AC0010B5054C237833B9044B13B10448AFF3A5
:1001BC0000800123237010BD00000020000000000F
:1001CC00B403000808B5034B1BB103490348AFF354
:1001DC00008008BD0000000004000020B4030008EB
:1001EC00034AD2F8883043F47003C2F88830704761
:1001FC0000ED00E008B500F04BF813E00133204AA5
:10020C009342FBDD1F4A936943F4804393610123BE
:10021C0000E001331A4A9342FBDD1A4A936943F416
:10022C0000439361174B1B6913F0040F06D0164A59
:10023C00936943F4804393610123E0E7134B1B69FB
:10024C0013F0040FEED0104A936943F0804393618E
:10025C00012300E001330A4A9342FBDD094A93690A
:10026C0043F080439361012300E00133044A93423D
:10027C00FBDD044A936943F000439361D2E700BF6E
:10028C0040420F00000C02400004024000180240E3
:10029C001C4A136B43F04A0313631B4B1A6842F05E
:1002AC0080521A605A6822F480425A609A6842F06E
:1002BC0080529A609A6942F080429A6103F5006319
:1002CC001A6842F080521A605A6822F480425A60CE
:1002DC009A6842F080529A609A6942F080429A6120
:1002EC001A6842F080421A605A6822F400425A603E
:1002FC009A6842F080429A609A6942F000429A6190
:10030C00704700BF0038024000040240DFF834D0D0
:10031C000D480E490E4A002302E0D458C450043351
:10032C00C4188C42F9D30B4A0B4C002301E0136028
:10033C000432A242FBD3FFF753FF00F011F8FFF792
:10034C0059FF70470000032000000020000000202F
:10035C00D4030008000000201C000020FEE7000071
:10036C0070B50D4D0D4C641BA4100026A64209D18E
:10037C000B4D0C4C00F018F8641BA4100026A64280
:10038C0005D170BD55F8043B98470136EEE755F89A
:10039C00043B98470136F2E7CC030008CC03000875
:1003AC00CC030008D0030008F8B500BFF8BC08BCAB
:1003BC009E467047F8B500BFF8BC08BC9E46704717
:0403CC00D101000853
:0403D000AD01000873
:0400000508000319D3
:00000001FF
