:020000040800F2
:100000000000032075060008C5060008C5060008A4
:10001000C5060008C5060008C50600080000000067
:10002000000000000000000000000000C5060008FD
:10003000C506000800000000C5060008BD02000853
:10004000C5060008C5060008C5060008C506000864
:10005000C5060008C5060008C5060008C506000854
:10006000CD020008C5060008C5060008C506000840
:10007000C5060008C5060008C5060008C506000834
:10008000C5060008C5060008C5060008C506000824
:10009000C5060008C5060008C5060008C506000814
:1000A000C5060008C5060008C5060008C506000804
:1000B000C5060008C5060008C5060008C5060008F4
:1000C000C5060008C5060008C5060008C5060008E4
:1000D000C5060008C5060008C5060008C5060008D4
:1000E000C5060008C5060008C5060008C5060008C4
:1000F000C5060008C5060008C5060008C5060008B4
:10010000C5060008C5060008C5060008C5060008A3
:10011000C5060008C5060008C5060008C506000893
:10012000C5060008C5060008C5060008C506000883
:10013000C5060008C5060008C5060008C506000873
:10014000C5060008C5060008C5060008C506000863
:10015000C5060008C5060008C5060008C506000853
:10016000C5060008C5060008C5060008C506000843
:10017000C5060008C5060008C50600080000000006
:10018000C5060008C5060008C5060008C506000823
:10019000C5060008C5060008C5060008C506000813
:0C01A000C5060008C5060008C5060008DA
:1001AC0010B5054C237833B9044B13B10448AFF3A5
:1001BC0000800123237010BD0C0000200000000003
:1001CC001007000808B5034B1BB103490348AFF3F4
:1001DC00008008BD0000000010000020100700087F
:1001EC00034AD2F8883043F47003C2F88830704761
:1001FC0000ED00E0224B9B6803F00C03042B11D0A4
:10020C00082B13D0002B37D11E4B1F4A1A601C4BE6
:10021C009B68C3F303131D4AD15C1A4A1368CB4085
:10022C0013607047174B1A4A1A60F0E7144B596861
:10023C005A6802F03F0211F4800F13D0144BB3FB39
:10024C00F2F30F4A5268C2F3881202FB03F30C4A12
:10025C005268C2F3014201325200B3FBF2F3094A75
:10026C001360D4E7084BB3FBF2F3054A5268C2F3B0
:10027C00881202FB03F3EAE7024B034A1A60C6E753
:10028C0000380240000000200024F4002807000879
:10029C0040787D0108B500F0DFF800F0F7F800F0C9
:1002AC000DF900F035F900F049F900F0A7F9FAE77B
:1002BC00024A136801331360704700BF4C000020E2
:1002CC00114B5B6913F0040F19D0104B1A68104BCB
:1002DC001B68D31A632B0DD90D4B1A600D4B1B6980
:1002EC0013F0040F0CD00C4B01221A700B4A13683C
:1002FC0001331360044A536943F00403536170479C
:10030C00074B01221A70F5E7003C01404C0000201D
:10031C0048000020000C0240460000203C00002059
:10032C0045000020052827D8DFE800F003090F1549
:10033C001B21124A936943F4005393617047104A8E
:10034C00936943F40073936170470D4A936943F4C6
:10035C00006393617047094A936943F48043936146
:10036C007047074A936943F4005393617047034AFB
:10037C00936943F400439361704700BF001402403B
:10038C0000100240052827D8DFE800F003090F15FC
:10039C001B21124A936943F0005393617047104A32
:1003AC00936943F00073936170470D4A936943F06E
:1003BC00006393617047094A936943F080439361EA
:1003CC007047074A936943F0005393617047034A9F
:1003DC00936943F000439361704700BF00140240DF
:1003EC0000100240054A936943F060439361A2F503
:1003FC008062936943F02853936170470014024064
:10040C0008B5104B1B68002B16DA0E490A6801322E
:10041C000D4BA3FB02039B0803EB43035800131A79
:10042C000B600868FFF77EFF084B01221A70084B1F
:10043C001A68084B1A6008BD024B1868FFF7A2FF38
:10044C00E3E700BF08000020ABAAAAAA2C000020FA
:10045C004C0000202800002008B50B4A136B43F019
:10046C0030031363A2F51052136843F0A8431360D2
:10047C00A2F58062136843F0886343F48023136011
:10048C00FFF7B0FF08BD00BF00380240094A136BEC
:10049C0043F008031363084B1A6822F030021A6009
:1004AC00DA6822F03002DA60DA6842F02002DA60B0
:1004BC00704700BF00380240000C0240114A536CD8
:1004CC0043F480435364A2F58032936823F4706341
:1004DC0043F4407393600C4B1A6842F004021A60A8
:1004EC009A6842F004029A60DA6842F00402DA6018
:1004FC005A6942F004025A61044B4FF480721A603C
:10050C00704700BF00380240003C014000E100E0B1
:10051C0008B5FFF76FFE074B1B68074AA2FB0323C6
:10052C009B09013B4FF0E0225361002393610723A9
:10053C00136108BD00000020D34D621008B5234B99
:10054C001A68234B1B783BB1214B00211970214BAE
:10055C0001211970204B1A60204B1B78002B34D0D2
:10056C0000231E490B701B490B701B4B1B68D31AC5
:10057C00B3F5FA6F17D3B3F57A6F1BD2184B1B7800
:10058C00C3B118490B6801330B601748017801316E
:10059C00164B83FB01C303EB4303CB1ADBB2037093
:1005AC00134B1A6011E0134A136801331360FFF701
:1005BC0027FF0AE010490B6801330B6008490B78E0
:1005CC0083F001030B700A4B1A6008BD4C0000202D
:1005DC004600002044000020400000204500002080
:1005EC0004000020340000202D00002056555555E5
:1005FC0028000020380000203000002008B5134BE4
:10060C001B78E3B1124B1B68002B18DB114B1A68DB
:10061C00114B1978114B53F82110114B1B68D31A3D
:10062C008B420CD30E4B1A600E4B1A7882F00102DF
:10063C001A701B7823B1064B1868FFF773FE08BDC0
:10064C00034B1868FFF79EFEF9E700BF040000207B
:10065C00080000204C0000202D0000203807000866
:10066C00280000202C000020DFF834D00D480E4963
:10067C000E4A002302E0D458C4500433C4188C42F0
:10068C00F9D30B4A0B4C002301E013600432A24255
:10069C00FBD3FFF7A5FD00F011F8FFF7FBFD70474A
:1006AC0000000320000000200C0000204C07000874
:1006BC000C00002050000020FEE7000070B50D4D2E
:1006CC000D4C641BA4100026A64209D10B4D0C4CFA
:1006DC0000F018F8641BA4100026A64205D170BDCA
:1006EC0055F8043B98470136EEE755F8043B98471C
:1006FC000136F2E7440700084407000844070008E5
:10070C0048070008F8B500BFF8BC08BC9E46704707
:0C071C00F8B500BFF8BC08BC9E46704752
:100728000000000000000000010203040607080999
:0C073800830600004D010000E3000000FB
:04074400D1010008D7
:04074800AD010008F7
:0C074C000024F40001000000FFFFFFFF8C
:040000050800067574
:00000001FF
