:020000040800F2
:100000000000032065060008B5060008B5060008D4
:10001000B5060008B5060008B50600080000000097
:10002000000000000000000000000000B50600080D
:10003000B506000800000000B5060008A10200088F
:10004000B5060008B5060008B5060008B5060008A4
:10005000B5060008B5060008B5060008B506000894
:10006000D9030008B5060008B5060008B506000863
:10007000B5060008B5060008B5060008B506000874
:10008000B5060008B5060008B5060008B506000864
:10009000B5060008B5060008B5060008B506000854
:1000A000B5060008B5060008B5060008B506000844
:1000B000B5060008B5060008B5060008B506000834
:1000C000B5060008B5060008B5060008B506000824
:1000D000B5060008B5060008B5060008B506000814
:1000E000B5060008B5060008B5060008B506000804
:1000F000B5060008B5060008B5060008B5060008F4
:10010000B5060008B5060008B5060008B5060008E3
:10011000B5060008B5060008B5060008B5060008D3
:10012000B5060008B5060008B5060008B5060008C3
:10013000B5060008B5060008B5060008B5060008B3
:10014000B5060008B5060008B5060008B5060008A3
:10015000B5060008B5060008B5060008B506000893
:10016000B5060008B5060008B5060008B506000883
:10017000B5060008B5060008B50600080000000036
:10018000B5060008B5060008B5060008B506000863
:10019000B5060008B5060008B5060008B506000853
:0C01A000B5060008B5060008B50600080A
:1001AC0010B5054C237833B9044B13B10448AFF3A5
:1001BC0000800123237010BD0C0000200000000003
:1001CC000007000808B5034B1BB103490348AFF304
:1001DC00008008BD0000000010000020000700088F
:1001EC00034AD2F8883043F47003C2F88830704761
:1001FC0000ED00E0224B9B6803F00C03042B11D0A4
:10020C00082B13D0002B37D11E4B1F4A1A601C4BE6
:10021C009B68C3F303131D4AD15C1A4A1368CB4085
:10022C0013607047174B1A4A1A60F0E7144B596861
:10023C005A6802F03F0211F4800F13D0144BB3FB39
:10024C00F2F30F4A5268C2F3881202FB03F30C4A12
:10025C005268C2F3014201325200B3FBF2F3094A75
:10026C001360D4E7084BB3FBF2F3054A5268C2F3B0
:10027C00881202FB03F3EAE7024B034A1A60C6E753
:10028C0000380240000000200024F4001807000889
:10029C0040787D01024A136801331360704700BF38
:1002AC003C000020052827D8DFE800F003090F15D3
:1002BC001B21124A936943F4005393617047104A0F
:1002CC00936943F40073936170470D4A936943F447
:1002DC00006393617047094A936943F480439361C7
:1002EC007047074A936943F4005393617047034A7C
:1002FC00936943F400439361704700BF00140240BC
:10030C0000100240052827D8DFE800F003090F157C
:10031C001B21124A936943F0005393617047104AB2
:10032C00936943F00073936170470D4A936943F0EE
:10033C00006393617047094A936943F0804393616A
:10034C007047074A936943F0005393617047034A1F
:10035C00936943F000439361704700BF001402405F
:10036C0000100240054A936943F060439361A2F583
:10037C008062936943F028539361704700140240E4
:10038C0008B50E4B1868002814DA0C4A13680133B0
:10039C001360052B02DD134600221A60074B186808
:1003AC00FFF780FF064B01221A70064B1A68064BAA
:1003BC001A6008BDFFF7A6FFE7E700BF08000020A2
:1003CC002C0000203C000020280000200F4B5B6913
:1003DC0013F0040F15D00E4B1A680E4B1B68D31A72
:1003EC00632B09D90B4B1A600B4B1B6913F0040FD1
:1003FC0008D00A4B01221A70044A536943F00403D3
:10040C0053617047064B01221A70F5E7003C01401E
:10041C003C00002038000020000C02403600002078
:10042C003500002008B5144B1A6B42F010021A6309
:10043C001A6B42F020021A63A3F510531A6842F0AB
:10044C0080621A601A6842F080521A601A6842F090
:10045C0080421A60A3F580631A6842F480221A6005
:10046C001A6842F480021A601A6842F080621A60BC
:10047C00FFF778FF08BD00BF00380240094A136B34
:10048C0043F008031363084B1A6822F030021A6019
:10049C00DA6822F03002DA60DA6842F02002DA60C0
:1004AC00704700BF00380240000C0240114A536CE8
:1004BC0043F480435364A2F58032936823F4706351
:1004CC0043F4407393600C4B1A6842F004021A60B8
:1004DC009A6842F004029A60DA6842F00402DA6028
:1004EC005A6942F004025A61044B4FF480721A604C
:1004FC00704700BF00380240003C014000E100E0C2
:10050C0008B5FFF777FE4FF0E0231A6922F00102DD
:10051C001A610B4A12680B49A1FB02129209013AAB
:10052C005A6100229A611A6942F004021A611A692E
:10053C0042F002021A611A6942F001021A6108BD06
:10054C0000000020D34D621008B51A4B1A681A4BE4
:10055C001B783BB1184B00211970184B01211970F5
:10056C00174B1A60174B1B7813B3164B00211970DD
:10057C00124B1B78E3B1114B1970114B1B68D31A3A
:10058C00B3F5FA6F12D3B3F57A6F11D20E4B1B7809
:10059C0073B10E490B780133DBB20B70022B02D90D
:1005AC000B46002119700A4B1A6001E0FFF7E8FEB8
:1005BC0008BD00BF3C0000203600002034000020A5
:1005CC003000002035000020040000202D00002009
:1005DC002800002008B5124B1B78CBB1114B1868C2
:1005EC00002815DB104B1A68104B1978104B53F878
:1005FC002110104B1B68D31A8B4209D30D4B1A6078
:10060C000D4B1B782BB1FFF77DFE0B4B00221A70A4
:10061C0008BDFFF747FE084B01221A70F8E700BF30
:10062C0004000020080000203C0000202D000020C9
:10063C0028070008280000202C00002008B5FFF730
:10064C00F1FEFFF71BFFFFF731FFFFF759FFFFF735
:10065C007BFFFFF7BFFFFAE7DFF834D00D480E49F8
:10066C000E4A002302E0D458C4500433C4188C4200
:10067C00F9D30B4A0B4C002301E013600432A24265
:10068C00FBD3FFF7ADFD00F011F8FFF7D7FF704774
:10069C0000000320000000200C0000203C07000894
:1006AC000C00002040000020FEE7000070B50D4D4E
:1006BC000D4C641BA4100026A64209D10B4D0C4C0A
:1006CC0000F018F8641BA4100026A64205D170BDDA
:1006DC0055F8043B98470136EEE755F8043B98472C
:1006EC000136F2E734070008340700083407000825
:1006FC0038070008F8B500BFF8BC08BC9E46704728
:0C070C00F8B500BFF8BC08BC9E46704762
:1007180000000000000000000102030406070809A9
:0C072800830600004D010000E30000000B
:04073400D1010008E7
:04073800AD01000807
:0C073C000024F40001000000FFFFFFFF9C
:040000050800066584
:00000001FF
