:020000040800F2
:100000000000032001040008510400085104000806
:1000100051040008510400085104000800000000C9
:100020000000000000000000000000005104000873
:1000300051040008000000005104000851040008A9
:10004000510400085104000851040008510400083C
:10005000510400085104000851040008510400082C
:10006000510400085104000851040008510400081C
:10007000510400085104000851040008510400080C
:1000800051040008510400085104000851040008FC
:1000900051040008510400085104000851040008EC
:1000A00051040008510400085104000851040008DC
:1000B00051040008510400085104000851040008CC
:1000C00051040008510400085104000851040008BC
:1000D00051040008510400085104000851040008AC
:1000E000510400085104000851040008510400089C
:1000F000510400085104000851040008510400088C
:10010000510400085104000851040008510400087B
:10011000510400085104000851040008510400086B
:10012000510400085104000851040008510400085B
:10013000510400085104000851040008510400084B
:10014000510400085104000851040008510400083B
:10015000510400085104000851040008510400082B
:10016000510400085104000851040008510400081B
:100170005104000851040008510400080000000068
:1001800051040008510400085104000851040008FB
:1001900051040008510400085104000851040008EB
:0C01A0005104000851040008510400083C
:1001AC0010B5054C237833B9044B13B10448AFF3A5
:1001BC0000800123237010BD00000020000000000F
:1001CC009C04000808B5034B1BB103490348AFF36B
:1001DC00008008BD00000000040000209C04000802
:1001EC00034AD2F8883043F47003C2F88830704761
:1001FC0000ED00E00D4B1B6913F0040F0DD1002036
:10020C007047013341F287329342FADD074B1B6989
:10021C0013F0040F03D1002070470023F2E7034BC7
:10022C001B6913F0040FFAD101207047000C024037
:10023C000D4B1B6913F0040F0DD1002070470133D7
:10024C0041F287329342FADD074B1B6913F0040F1E
:10025C0003D1002070470023F2E7034B1B6913F016
:10026C00040FFAD10120704700180240044B9A6920
:10027C0042F000529A619A6942F400529A617047B6
:10028C0000140240044B9A6942F400429A619A6944
:10029C0042F000429A6170470014024010F00100D5
:1002AC0000D001207047000010B500F035F8002494
:1002BC0011E0013341F288329342FADD013412E04D
:1002CC000123F7E7FFF7B4FF012804D1FFF7DAFFAA
:1002DC0001E0012810D02046FFF7E0FF0D4B1B6911
:1002EC0013F0080FECD10028F3D1FFF783FF01289E
:1002FC00E8D1FFF7BBFFEEE7FFF77CFF012806D044
:10030C00FFF796FF0128E6D1FFF7B0FFE3E7FFF711
:10031C00B9FFE0E700180240334A136B43F078034F
:10032C001363324B1A6842F080621A605A6822F4E6
:10033C0000525A609A6842F080629A609A6942F060
:10034C0000529A612A4A116841F480211160516867
:10035C0021F400715160916841F4802191609169A0
:10036C0041F000719161116841F480011160516894
:10037C0021F400615160916841F4800191609169B0
:10038C0041F000619161196841F080511960596820
:10039C0021F480415960996841F0805199609969C4
:1003AC0041F080419961116841F0806111605168A0
:1003BC0021F400515160916841F080619160916924
:1003CC0041F0005191611A6842F080421A605A68FB
:1003DC0022F400425A609A6842F080429A609A690C
:1003EC0042F000429A61704700380240001402400B
:1003FC0000100240DFF834D00D480E490E4A00239D
:10040C0002E0D458C4500433C4188C42F9D30B4ABC
:10041C000B4C002301E013600432A242FBD3FFF724
:10042C00DFFE00F011F8FFF73FFF704700000320DC
:10043C000000002000000020BC0400080000002088
:10044C001C000020FEE7000070B50D4D0D4C641B28
:10045C00A4100026A64209D10B4D0C4C00F018F844
:10046C00641BA4100026A64205D170BD55F8043BB0
:10047C0098470136EEE755F8043B98470136F2E70A
:10048C00B4040008B4040008B4040008B80400085C
:10049C00F8B500BFF8BC08BC9E467047F8B500BF65
:0804AC00F8BC08BC9E46704735
:0404B400D10100086A
:0404B800AD0100088A
:0400000508000401EA
:00000001FF
