:020000040800F2
:100000000000032089030008D9030008D903000871
:10001000D9030008D9030008D90300080000000034
:10002000000000000000000000000000D9030008EC
:10003000D903000800000000D9030008D903000814
:10004000D9030008D9030008D9030008D903000820
:10005000D9030008D9030008D9030008D903000810
:10006000D9030008D9030008D9030008D903000800
:10007000D9030008D9030008D9030008D9030008F0
:10008000D9030008D9030008D9030008D9030008E0
:10009000D9030008D9030008D9030008D9030008D0
:1000A000D9030008D9030008D9030008D9030008C0
:1000B000D9030008D9030008D9030008D9030008B0
:1000C000D9030008D9030008D9030008D9030008A0
:1000D000D9030008D9030008D9030008D903000890
:1000E000D9030008D9030008D9030008D903000880
:1000F000D9030008D9030008D9030008D903000870
:10010000D9030008D9030008D9030008D90300085F
:10011000D9030008D9030008D9030008D90300084F
:10012000D9030008D9030008D9030008D90300083F
:10013000D9030008D9030008D9030008D90300082F
:10014000D9030008D9030008D9030008D90300081F
:10015000D9030008D9030008D9030008D90300080F
:10016000D9030008D9030008D9030008D9030008FF
:10017000D9030008D9030008D903000800000000D3
:10018000D9030008D9030008D9030008D9030008DF
:10019000D9030008D9030008D9030008D9030008CF
:0C01A000D9030008D9030008D9030008A7
:1001AC0010B5054C237833B9044B13B10448AFF3A5
:1001BC0000800123237010BD00000020000000000F
:1001CC002404000808B5034B1BB103490348AFF3E3
:1001DC00008008BD0000000004000020240400087A
:1001EC00034AD2F8883043F47003C2F88830704761
:1001FC0000ED00E0184A136B43F007031363174B31
:10020C001A6842F400221A609A6842F440229A60FA
:10021C005A6A22F0F0025A62114A116841F4003114
:10022C001160996841F440319960536A23F00F03CF
:10023C0053620C4B1A6842F480421A605A6822F0DE
:10024C0080025A609A6842F480429A609A6942F439
:10025C0000029A61704700BF00380240000802405B
:10026C0000000240000402403B4A136823F0F803EC
:10027C0043F08003136000239360374B9B6813F0AB
:10028C000C0FFAD1344A136823F080731360324B8D
:10029C001B6813F0007FFAD12F4A136823F4102344
:1002AC0013602D4B1B6813F4003FFAD12A4B1A68CC
:1002BC0022F480221A601A6842F480321A60264BAB
:1002CC001B6813F4003FFAD0234B1A6842F4002247
:1002DC001A6000225A605A6842F480025A605A68C6
:1002EC0042F004025A605A6842F4B4425A605A68A6
:1002FC0042F480325A605A6842F070625A609A68CE
:10030C0042F002029A609A689A609A6842F4A0528B
:10031C009A609A6842F400429A609A6842F4C00269
:10032C009A609A6842F0C0629A609A6822F04042E1
:10033C009A609A6842F040529A6008490A6842F002
:10034C0005020A601A6842F080721A60024B1B6840
:10035C0013F0007FFAD0704700380240003C024096
:10036C0008B5FFF781FFFFF745FF034A936943F098
:10037C0080039361F9E700BF00040240DFF834D03A
:10038C000D480E490E4A002302E0D458C4500433E1
:10039C00C4188C42F9D30B4A0B4C002301E01360B8
:1003AC000432A242FBD3FFF71BFF00F011F8FFF75A
:1003BC00D7FF704700000320000000200000002041
:1003CC0044040008000000201C000020FEE7000090
:1003DC0070B50D4D0D4C641BA4100026A64209D11E
:1003EC000B4D0C4C00F018F8641BA4100026A64210
:1003FC0005D170BD55F8043B98470136EEE755F82A
:10040C00043B98470136F2E73C0400083C04000822
:10041C003C04000840040008F8B500BFF8BC08BC58
:10042C009E467047F8B500BFF8BC08BC9E467047A6
:04043C00D1010008E2
:04044000AD01000802
:040000050800038963
:00000001FF
