:020000040800F2
:1000000000000320C50400081505000815050008B8
:10001000150500081505000815050008000000007A
:1000200000000000000000000000000015050008AE
:10003000150500080000000015050008150500085A
:100040001505000815050008150500081505000828
:100050001505000815050008150500081505000818
:100060001505000815050008150500081505000808
:1000700015050008150500081505000815050008F8
:1000800015050008150500081505000815050008E8
:1000900015050008150500081505000815050008D8
:1000A00015050008150500081505000815050008C8
:1000B00015050008150500081505000815050008B8
:1000C00015050008150500081505000815050008A8
:1000D0001505000815050008150500081505000898
:1000E0001505000815050008150500081505000888
:1000F0001505000815050008150500081505000878
:100100001505000815050008150500081505000867
:100110001505000815050008150500081505000857
:100120001505000815050008150500081505000847
:100130001505000815050008150500081505000837
:100140001505000815050008150500081505000827
:100150001505000815050008150500081505000817
:100160001505000815050008150500081505000807
:100170001505000815050008150500080000000019
:1001800015050008150500081505000815050008E7
:1001900015050008150500081505000815050008D7
:0C01A000150500081505000815050008ED
:1001AC0010B5054C237833B9044B13B10448AFF3A5
:1001BC0000800123237010BD00000020000000000F
:1001CC006005000808B5034B1BB103490348AFF3A6
:1001DC00008008BD0000000004000020600500083D
:1001EC00034AD2F8883043F47003C2F88830704761
:1001FC0000ED00E010B500F02BF800240AE001340B
:10020C000CE000F0A9F8012804D100F00DF901E090
:10021C0001280FD000F0B2F80128F0D0204600F0F1
:10022C0047F90028F4D100F085F80128E9D100F055
:10023C00B7F8EFE700F07EF8012806D000F08CF854
:10024C000128E7D100F0ACF8E4E700F0EDF8E1E7C5
:10025C00F0B5364AD2F8303843F07003C2F8303873
:10026C00334BD3F8004444F08062C3F80024D3F835
:10027C00040420F40052C3F80424D3F808C44CF04E
:10028C008062C3F80824D3F8187447F00052C3F8FE
:10029C001824196841F480221A605E6826F40072F2
:1002AC005A609A6842F480259D609D6945F0007EF5
:1002BC00C3F818E041F48801196026F4206EC3F8E5
:1002CC0004E042F488029A6045F0206EC3F818E00E
:1002DC0044F0A05EC3F800E420F4C04EC3F804E47C
:1002EC004CF0A05EC3F808E447F0C04EC3F818E425
:1002FC0041F08061196026F428565E6042F08062FD
:10030C009A6045F028559D6144F0A844C3F8004418
:10031C0020F46040C3F804044CF0A841C3F808145E
:10032C0047F06047C3F81874F0BD00BF00300240BE
:10033C0000100240074BD3F8043C13F0040F07D015
:10034C0000207047013340F6AB529342FADDFEE7D2
:10035C000023F8E700000240074BD3F8043813F0F1
:10036C00040F07D000207047013340F6AB52934284
:10037C00FADDFEE70023F8E700100240074BD3F844
:10038C00043813F0080F07D000207047013340F6F3
:10039C00AB529342FADDFEE70023F8E7001002406F
:1003AC00204BD3F8043413F4005F07D11D4AD2F864
:1003BC00183443F40053C2F818347047194A526881
:1003CC0012F4007F05D1174A936943F400739361CB
:1003DC00704712F4006F05D1124A936943F400631D
:1003EC009361704713F4804F07D10E4AD2F818343A
:1003FC0043F48043C2F81834704712F4005F05D1FF
:10040C00084A936943F400539361704713F4004F07
:10041C0006D1044AD2F8183443F40043C2F8183415
:10042C00704700BF00100240204BD3F8043413F483
:10043C00004F07D01D4AD2F8183443F00043C2F8DD
:10044C0018347047194A526812F4005F05D0174AE5
:10045C00936943F000539361704713F4804F07D0B6
:10046C00124AD2F8183443F08043C2F8183470475B
:10047C0012F4006F05D00D4A936943F00063936149
:10048C00704712F4007F05D0084A936943F000735B
:10049C009361704713F4005F06D0044AD2F8183405
:1004AC0043F00053C2F81834704700BF00100240EC
:1004BC0000F0010070470000DFF834D00D480E4901
:1004CC000E4A002302E0D458C4500433C4188C42A2
:1004DC00F9D30B4A0B4C002301E013600432A24207
:1004EC00FBD3FFF77DFE00F011F8FFF783FE70479A
:1004FC000000032000000020000000208005000800
:10050C00000000201C000020FEE7000070B50D4D1F
:10051C000D4C641BA4100026A64209D10B4D0C4CAB
:10052C0000F018F8641BA4100026A64205D170BD7B
:10053C0055F8043B98470136EEE755F8043B9847CD
:10054C000136F2E778050008780500087805000800
:10055C007C050008F8B500BFF8BC08BC9E46704787
:0C056C00F8B500BFF8BC08BC9E46704704
:04057800D1010008A5
:04057C00AD010008C5
:04000005080004C526
:00000001FF
