:020000040800F2
:100000000000022061020008B1020008B1020008ED
:10001000B1020008B1020008B102000800000000AF
:10002000000000000000000000000000B102000815
:10003000B102000800000000B1020008B10200088F
:10004000B1020008B1020008B1020008B1020008C4
:10005000B1020008B1020008B1020008B1020008B4
:10006000B1020008B1020008B1020008B1020008A4
:10007000B1020008B1020008B1020008B102000894
:10008000B1020008B1020008B1020008000000003F
:10009000000000000000000000000000B1020008A5
:1000A000B1020008B1020008B1020008B102000864
:1000B000B1020008B1020008B1020008B102000854
:1000C000B1020008B1020008B1020008B102000844
:1000D000B1020008B1020008B102000800000000EF
:1000E000B1020008B1020008B102000800000000DF
:1000F000000000000000000000000000B102000845
:1001000000000000B1020008B1020008B1020008BE
:1001100000000000000000000000000000000000DF
:10012000B1020008B1020008B1020008B1020008E3
:10013000B102000800000000000000000000000004
:10014000000000000000000000000000B1020008F4
:10015000B1020008B1020008B1020008B1020008B3
:10016000B1020008B1020008000000000000000019
:10017000000000000000000000000000000000007F
:1001800000000000B10200080000000000000000B4
:08019000B1020008B1020008F1
:1001980010B5054C237833B9044B13B10448AFF3B9
:1001A80000800123237010BD000000200000000023
:1001B800FC02000808B5034B1BB103490348AFF321
:1001C800008008BD0000000004000020FC020008B8
:1001D800034AD2F8883043F47003C2F88830704775
:1001E80000ED00E008B500F01BF803E00133094A10
:1001F8009342FBDD084B9A6942F480329A619A690E
:1002080042F001029A61054A136801331360002322
:10021800EDE700BFFFE0F505000002401C000020EC
:100228000B4A136B43F0010313630A4B1A6842F03D
:1002380001021A605A6822F001025A609A6842F074
:1002480001029A609A6942F480329A61704700BF4D
:100258000038024000000240DFF834D00D480E4953
:100268000E4A002302E0D458C4500433C4188C4208
:10027800F9D30B4A0B4C002301E013600432A2426D
:10028800FBD3FFF7A5FF00F011F8FFF7ABFF7047AE
:100298000000022000000020000000201C030008CD
:1002A8000000002020000020FEE7000070B50D4D82
:1002B8000D4C641BA4100026A64209D10B4D0C4C12
:1002C80000F018F8641BA4100026A64205D170BDE2
:1002D80055F8043B98470136EEE755F8043B984734
:1002E8000136F2E714030008140300081403000899
:1002F80018030008F8B500BFF8BC08BC9E46704754
:0C030800F8B500BFF8BC08BC9E4670476A
:04031400BD0100081F
:04031800990100083F
:04000005080002618C
:00000001FF
